{
  "contractName": "Election",
  "abi": [
    {
      "constant": true,
      "inputs": [],
      "name": "candidatesCount",
      "outputs": [
        {
          "name": "",
          "type": "uint256"
        }
      ],
      "payable": false,
      "stateMutability": "view",
      "type": "function"
    },
    {
      "constant": true,
      "inputs": [
        {
          "name": "",
          "type": "uint256"
        }
      ],
      "name": "candidates",
      "outputs": [
        {
          "name": "id",
          "type": "uint256"
        },
        {
          "name": "name",
          "type": "string"
        },
        {
          "name": "voteCount",
          "type": "uint256"
        }
      ],
      "payable": false,
      "stateMutability": "view",
      "type": "function"
    },
    {
      "constant": true,
      "inputs": [
        {
          "name": "",
          "type": "address"
        }
      ],
      "name": "voters",
      "outputs": [
        {
          "name": "",
          "type": "bool"
        }
      ],
      "payable": false,
      "stateMutability": "view",
      "type": "function"
    },
    {
      "inputs": [],
      "payable": false,
      "stateMutability": "nonpayable",
      "type": "constructor"
    },
    {
      "constant": false,
      "inputs": [
        {
          "name": "_name",
          "type": "string"
        }
      ],
      "name": "addCandidate",
      "outputs": [],
      "payable": false,
      "stateMutability": "nonpayable",
      "type": "function"
    },
    {
      "constant": false,
      "inputs": [
        {
          "name": "_candidateId",
          "type": "uint256"
        }
      ],
      "name": "vote",
      "outputs": [],
      "payable": false,
      "stateMutability": "nonpayable",
      "type": "function"
    }
  ],
  "bytecode": "0x6060604052341561000f57600080fd5b6104c58061001e6000396000f30060606040526004361061006d576000357c0100000000000000000000000000000000000000000000000000000000900463ffffffff1680630121b93f146100725780632d35a8a2146100955780633477ee2e146100be578063462e91ec14610185578063a3ec138d146101e2575b600080fd5b341561007d57600080fd5b6100936004808035906020019091905050610233565b005b34156100a057600080fd5b6100a8610328565b6040518082815260200191505060405180910390f35b34156100c957600080fd5b6100df600480803590602001909190505061032e565b60405180848152602001806020018381526020018281038252848181546001816001161561010002031660029004815260200191508054600181600116156101000203166002900480156101745780601f1061014957610100808354040283529160200191610174565b820191906000526020600020905b81548152906001019060200180831161015757829003601f168201915b505094505050505060405180910390f35b341561019057600080fd5b6101e0600480803590602001908201803590602001908080601f01602080910402602001604051908101604052809392919081815260200183838082843782019150505050505091905050610357565b005b34156101ed57600080fd5b610219600480803573ffffffffffffffffffffffffffffffffffffffff169060200190919050506103d4565b604051808215151515815260200191505060405180910390f35b6000803373ffffffffffffffffffffffffffffffffffffffff1673ffffffffffffffffffffffffffffffffffffffff16815260200190815260200160002060009054906101000a900460ff1615151561028b57600080fd5b60008111801561029d57506002548111155b15156102a857600080fd5b60016000803373ffffffffffffffffffffffffffffffffffffffff1673ffffffffffffffffffffffffffffffffffffffff16815260200190815260200160002060006101000a81548160ff021916908315150217905550600160008281526020019081526020016000206002016000815480929190600101919050555050565b60025481565b600160205280600052604060002060009150905080600001549080600101908060020154905083565b600260008154809291906001019190505550606060405190810160405280600254815260200182815260200160008152506001600060025481526020019081526020016000206000820151816000015560208201518160010190805190602001906103c39291906103f4565b506040820151816002015590505050565b60006020528060005260406000206000915054906101000a900460ff1681565b828054600181600116156101000203166002900490600052602060002090601f016020900481019282601f1061043557805160ff1916838001178555610463565b82800160010185558215610463579182015b82811115610462578251825591602001919060010190610447565b5b5090506104709190610474565b5090565b61049691905b8082111561049257600081600090555060010161047a565b5090565b905600a165627a7a723058201ab0589137d525f057e70d45b729ff81c0e0dede4a639d4a51a338c4ca7e71c00029",
  "source": "pragma solidity ^0.4.11;\r\n\r\ncontract Election{\r\n    //Model a Candidate\r\n    struct Candidate{\r\n        uint id;\r\n        string name;\r\n        uint voteCount;\r\n    }//(instantiate then assign it to a variable)\r\n\r\n    //Store accounts that has voted\r\n    mapping(address => bool) public voters;//\r\n    //Store Candidates\r\n    //Fetch Candidate\r\n    mapping(uint => Candidate) public candidates;//associative array or hash--way to store candidates\r\n    //Store Candidates Count\r\n    uint public candidatesCount;// default value of uint is 0\r\n    //^counter for the mapping --- a way to keep track how many candidates exist and be able to iterate through it\r\n\r\n    \r\n    function Election() public { //constructor will run whenever the contract is initialized/deployed\r\n        // addCandidate(\"Candidate 1\");\r\n        // addCandidate(\"Candidate 2\");\r\n    }\r\n\r\n    function addCandidate (string _name) public { \r\n        // _name -- with underscore to be known as a local variable\r\n        candidatesCount ++; //increment syntax for sol\r\n        candidates[candidatesCount] = Candidate(candidatesCount, _name, 0);//Candidate(id, name, initial value for voteCount)\r\n\r\n    }\r\n\r\n    function vote (uint _candidateId) public {\r\n        //require that they haven't voted before\r\n        require(!voters[msg.sender]);\r\n        //require a valid candidate\r\n        require(_candidateId > 0 && _candidateId <= candidatesCount);\r\n        //record that the voter has voted\r\n        voters[msg.sender] = true;\r\n        // update candidate vote count\r\n        candidates[_candidateId].voteCount ++;\r\n    }\r\n\r\n}",
  "sourcePath": "C:\\Users\\ahernandez\\Documents\\dapp-voting\\contracts\\Election.sol",
  "compiler": {
    "name": "solc",
    "version": "0.4.19+commit.c4cbbb05.Emscripten.clang"
  },
  "schemaVersion": "2.0.0",
  "updatedAt": "2018-04-03T05:43:13.977Z"
}